:100000000C94DB030C9403040C9403040C9403047D
:100010000C9403040C9403040C9403040C94030444
:100020000C9403040C9403040C948F110C94FE0B99
:100030000C9403040C9403040C9403040C94030424
:100040000C9403040C9403040C9403040C94030414
:100050000C9403040C9403040C9403040C942612D3
:100060000C9403040C9403040C9403040C940304F4
:100070000C9403040C9403040C9403040C940304E4
:100080000C94FA060C9403040C9403040C94A20A36
:100090000C9403040C9403040C9403040C940304C4
:1000A0000C9403040C9403040C940304670E6A0E6E
:1000B000590E5D0E610E8B0E8B0E8B0E6E0E720E38
:1000C000760E7C0E800E8B0E860EC60ECB0ED00EDC
:1000D000DA0EE40E2E0F2E0F2E0FEE0EF80E020F7C
:1000E0000C0F190F2E0F210FF0F89C8E8783878E2F
:1000F0009CF8F00000FEFF0303030303070EFCF867
:100100000000FEFF0303030303070EFCF80000FFDB
:10011000FF00000000000000FFFF0000FEFF8383DF
:10012000838383C7EE7C380000F8FC0E07030303CB
:10013000070EFCF800003F7FE0C08080C0E07F3FFA
:10014000FFFF01010101010101FFFF0000FFFF0CA2
:100150000C0C0C1C3E77E3C100007FFFC0C0C0C088
:10016000C0E0703F1F00001F3F70E0C0C0C0E070E3
:100170003F1F00007FFFC1C1C1C1C1E3773E1C002A
:10018000001F3F70E0C0C0C0E0703F1F00000000D3
:100190000001FFFF01000000D5F08D14A1C881CF40
:1001A000D9F1AF20003E005350454544004D555312
:1001B00049432047454E20504F434B4554000000D3
:1001C0000000003E5B4F5B3E3E6B4F6B3E1C3E7C37
:1001D0003E1C183C7E3C181C577D571C1C5E7F5EE5
:1001E0001C00183C1800FFE7C3E7FF0018241800A4
:1001F000FFE7DBE7FF30483A060E2629792926403B
:100200007F050507407F05253F5A3CE73C5A7F3E66
:100210001C1C08081C1C3E7F14227F22145F5F00F8
:100220005F5F06097F017F006689956A6060606094
:100230006094A2FFA29408047E040810207E20107F
:1002400008082A1C08081C2A08081E101010100C88
:100250001E0C1E0C30383E3830060E3E0E060000D6
:1002600000000000005F00000007000700147F147A
:100270007F14242A7F2A12231308646236495620E9
:10028000500008070300001C2241000041221C000E
:100290002A1C7F1C2A08083E0808008070300008CD
:1002A00008080808000060600020100804023E51A1
:1002B00049453E00427F4000724949494621414933
:1002C0004D331814127F1027454545393C4A49499A
:1002D0003141211109073649494936464949291E04
:1002E00000001400000040340000000814224114F3
:1002F00014141414004122140802015909063E4145
:100300005D594E7C1211127C7F494949363E41416C
:1003100041227F4141413E7F494949417F090909C5
:10032000013E414151737F0808087F00417F410031
:100330002040413F017F081422417F404040407FE0
:10034000021C027F7F0408107F3E4141413E7F092D
:100350000909063E4151215E7F091929462649496E
:10036000493203017F01033F4040403F1F204020AE
:100370001F3F4038403F63140814630304780403AC
:100380006159494D43007F4141410204081020005A
:100390004141417F040201020440404040400003CB
:1003A00007080020545478407F2844443838444497
:1003B0004428384444287F385454541800087E098F
:1003C0000218A4A49C787F0804047800447D4000AF
:1003D0002040403D007F1028440000417F40007CC9
:1003E000047804787C080404783844444438FC18C1
:1003F00024241818242418FC7C08040408485454A5
:10040000542404043F44243C4040207C1C204020D1
:100410001C3C4030403C44281028444C9090907C38
:100420004464544C4400083641000000770000004A
:100430004136080002010204023C2623263C1EA18C
:10044000A161123A4040207A3854545559215555EB
:10045000794121545478412155547840205455799C
:10046000400C1E527212395555555939545454592D
:1004700039555454580000457C410002457D4200E6
:1004800001457C40F0292429F0F0282528F07C54EF
:100490005545002054547C547C0A097F493249490F
:1004A00049323248484832324A4848303A4141217C
:1004B0007A3A42402078009DA0A07D3944444439D6
:1004C0003D4040403D3C24FF2424487E4943662B68
:1004D0002FFC2F2BFF0929F620C0887E090320540A
:1004E0005479410000447D413048484A3238404008
:1004F000227A007A0A0A727D0D19317D2629292F68
:1005000028262929292630484D402038080808087F
:1005100008080808382F10C8ACBA2F102834FA0081
:10052000007B000008142A142222142A14089500C3
:10053000220095AA005500AAAA55AA55AA000000B3
:10054000FF00101010FF00141414FF001010FF0023
:10055000FF1010F010F0141414FC001414F700FF36
:100560000000FF00FF1414F404FC141417101F10F3
:10057000101F101F1414141F00101010F0000000A2
:10058000001F101010101F10101010F010000000AD
:10059000FF101010101010101010FF10000000FFBE
:1005A000140000FF00FF00001F10170000FC04F4FF
:1005B00014141710171414F404F40000FF00F714B7
:1005C000141414141414F700F7141414171410103E
:1005D0001F101F141414F4141010F010F000001F5A
:1005E000101F0000001F14000000FC140000F01099
:1005F000F01010FF10FF141414FF141010101F003F
:10060000000000F010FFFFFFFFFFF0F0F0F0F0FF40
:10061000FFFF0000000000FFFF0F0F0F0F0F384417
:100620004438447C2A2A3E147E02020606027E02D8
:100630007E0263554941633844443C04407E201E99
:100640002006027E020299A5E7A5991C2A492A1CC8
:100650004C7201724C304A4D4D303048784830BCB5
:10066000625A463D3E494949007E0101017E2A2ADF
:100670002A2A2A44445F444440514A444040444A60
:1006800051400000FF0103E080FF000008086B6B91
:10069000083612362436060F090F06000018180017
:1006A00000001010003040FF0101001F01011E007A
:1006B000191D1712003C3C3C3C00000000000102E8
:1006C0000408102040800000000200090F00000311
:1006D0000401000C00000000000000000000000009
:1006E0000000000000080B000202020100090400E3
:1006F000000102020000052400100105240101018F
:1007000004240206052406000107058103100040A9
:1007100009040100020A000000070502024000006F
:10072000070583024000000403090412010002EFE0
:10073000020140412336800001010203014172643D
:1007400075696E6F204C4C430041726475696E6F21
:10075000204C656F6E6172646F0000000000250020
:1007600028002B002E00310000000000240027008C
:100770002A002D00300004040404040304050202CE
:10078000020204030202020206060606060604042A
:1007900002020204040408020110408040102040BC
:1007A0008040800802040180402010020110801067
:1007B000204040206D1711241FBECFEFDAE0DEBFCE
:1007C000CDBF11E0A0E0B1E0E0E1F2E302C00590AE
:1007D0000D92AE38B107D9F728E0AEE8B1E001C01C
:1007E0001D92A43EB207E1F713E0CBEDD3E004C0C5
:1007F0002197FE010E94FB18CA3DD107C9F70E944C
:1008000070120C9406190C940000CF92DF92EF92B4
:10081000FF920F931F93CF93DF936C017A018B01AB
:10082000C0E0D0E0CE15DF0581F0D8016D918D01DB
:10083000D601ED91FC910190F081E02DC601099562
:10084000892B11F02196EECF7E01C701DF91CF9168
:100850001F910F91FF90EF90DF90CF9008958091BE
:100860003704E0913A04F0913B04882349F0CF012A
:10087000029690933B0480933A0485919491089555
:10088000CF01029690933B0480933A04808191813A
:1008900008958091900108950895089580E090E072
:1008A0000895FC01128285E08093E1030895809110
:1008B0002E0490912F0497FF05C080919901282F55
:1008C00030E002C020E030E08091300490913104AB
:1008D00097FF05C090919A01892F90E002C080E0B7
:1008E00090E0820F931F209132043091330437FF40
:1008F00004C020919B0130E002C020E030E0820F74
:10090000931F209134043091350437FF04C02091A7
:100910009C0130E002C020E030E0820F931F089578
:100920000E940119CF92DF92EF92FF920F931F93D3
:10093000CF93DF93EC01162F042F0E9403182AE0B7
:10094000C22ED12CE12CF12CA70196010E94701827
:10095000043009F47AC038F4013009F4AAC0023036
:1009600009F0B0C090C0083049F1003121F00630E4
:1009700009F0A8C04CC06230710514F442E004C014
:10098000653071057CF444E0612FCE010E94920431
:10099000DF91CF911F910F91FF90EF90DF90CF905B
:1009A0000C94031848E0612FCE010E949204185F56
:1009B0000E940318A70196010E9470186430710507
:1009C0006CF49091360481E0890F80933604C10F56
:1009D000D11D88E099938150E9F774C066307105A4
:1009E0007CF442E0612FCE010E9492041E5F0E94BF
:1009F00003182AE030E040E050E00E94701807C081
:100A000044E0612FCE010E9492041C5F16C0643046
:100A100071056CF49091360481E0890F809336045F
:100A2000C10FD11D86E099938150E9F74BC042E098
:100A3000612FCE010E9492041E5F0E9403182AE0DB
:100A400030E040E050E00E947018653071056CF4B1
:100A50009091360481E0890F80933604C10FD11D37
:100A600084E099938150E9F72DC042E0612FCE01D7
:100A70000E9492041E5F0E9403182AE030E040E0CA
:100A800050E00E947018683071055CF48091360463
:100A900091E0980F90933604C10FD11D888389830C
:100AA00011C041E0612FCE010E9492041F5F0E949D
:100AB00003188091360491E0980F90933604C10F8B
:100AC000D11D8883DF91CF911F910F91FF90EF90FF
:100AD000DF90CF9008954F925F926F927F928F92A6
:100AE0009F92AF92BF92CF92DF92EF92FF920F93BD
:100AF0001F93CF93DF93CDB7DEB7A1970FB6F894CE
:100B0000DEBF0FBECDBF2C010E944E1110926B08AC
:100B100010926A0810926908109268088DEA91E0B4
:100B20000E94D6108AE090E090936908809368084C
:100B300009E010E010936B0800936A0887EA91E0DF
:100B40000E94D6108DE290E0909369088093680827
:100B500010936B0800936A082091E10330E040E0B5
:100B600050E019A28E010F5D1F4F6AE0C62ED12CF6
:100B7000E12CF12CCA01B901A70196010E94A2182B
:100B8000605DF80162938F01211531054105510522
:100B900089F7309761F001900020E9F73197AF01B4
:100BA000401B510BB80182E598E00E94050438E033
:100BB000632E712C00E010E0C12CD12C40E2A42E59
:100BC000B12CE091E303F0E0EF55FC4F8081F6019A
:100BD00020E1829FE00DF11D1124E156FE4FDF015F
:100BE000AF5FBE4F8C91882339F181817501E81A7E
:100BF000F108EE0CFF1C470181E0881A910890E48F
:100C00008916910420F4B401C8010E941B11B70198
:100C10006E5F7F4F6034710518F4C8010E941B118C
:100C200044E0B401C8010E94F11044E0B401C801DD
:100C300007960E94F11013C081814501881A91081E
:100C4000880C991C7801E614F70449F042E0B401DD
:100C5000C7010E94F110EFEFEE1AFE0AF4CFE09107
:100C6000E303F0E0E755FC4F8081F60120E1829F2D
:100C7000E00DF11D1124E156FE4F81814501881AD6
:100C80009108880C991C7801E614F70449F042E0B9
:100C9000B401C7010E94F1108FEFE81AF80AF4CFEF
:100CA0009FEFC91AD90A085F1F4F3701E8E06E0E9F
:100CB000711CF0E1CF16D10409F083CF8091E203DB
:100CC00040E460E070E028E0829FC00111240E94AF
:100CD000F110F201828190E0019649E0489F900175
:100CE000499F300D112410926908109268083093C2
:100CF0006B0820936A088091590880FD04C085EA3A
:100D000091E00E94D610A1960FB6F894DEBF0FBEF8
:100D1000CDBFDF91CF911F910F91FF90EF90DF90AA
:100D2000CF90BF90AF909F908F907F906F905F908B
:100D30004F900895CF93DF93EC0188E00E945D11FE
:100D40008823C9F08FE380939D018A81823081F0EE
:100D500028F4882349F0813059F00DC0843041F0E7
:100D600030F0853029F007C010929F013EC083E02B
:100D700080939F013AC084E00E945D11882319F09E
:100D80008FE380939E0180E80E945D11882329F003
:100D90008A81882311F081508A8380E10E945D114D
:100DA000882329F08A81853010F48F5F8A8380E25E
:100DB0000E945D11882351F08A81811107C08091C2
:100DC000E103843018F081508093E10380E40E94B5
:100DD0005D11882351F08A81811107C08091E10360
:100DE0008A3018F48F5F8093E10380E090E0DF9118
:100DF000CF9108951F920F920FB60F921124CF92A8
:100E0000DF92EF92FF920F931F932F933F934F9395
:100E10005F936F937F938F939F93AF93BF93CF9382
:100E2000DF93EF93FF9380913F0490914004A09152
:100E30004104B0914204892B8A2B8B2B89F180913C
:100E40003E0481110BC098B180E4892788B9809154
:100E50003D04882319F088B1805888B980913F04F7
:100E600090914004A0914104B091420418161906D3
:100E70001A061B060CF0ADC080913F04909140040F
:100E8000A0914104B09142040197A109B109809356
:100E90003F0490934004A0934104B093420499C04E
:100EA0000E942F04811520E8920761F4809171005F
:100EB0008D7F809371001092910046984798109210
:100EC0003C0487C021E020933C04813020E8920755
:100ED00031F410923B0410923A040E942F0497FDC3
:100EE00005C020913904222309F43FC02091380421
:100EF00021113BC021E020933D04EC01DF772097D6
:100F000069F481E080933E0446983FE9C32E3FE0B8
:100F1000D32EE12CF12CCAEFD0E014C08E0120E0DA
:100F200030E060E472E48FE090E0A90198010E9453
:100F3000701869017A0181E0C81AD108E108F10846
:100F400010923E04E0914C08F0914D0809958111F2
:100F500003C081E080933E0480913D048823B9F171
:100F600080913E04811133C003C010923D04C5CF6F
:100F700046992DC0479A0E942F04009771F09C015A
:100F8000DE010E94C418DC01CB0129E0B595A795CC
:100F9000979587952A95D1F703C08FEF9FEFDC01D6
:100FA000109290002AE020939100D0929900C09274
:100FB000980080933F0490934004A0934104B09321
:100FC00042048091710082608093710002C0479852
:100FD000D2CFFF91EF91DF91CF91BF91AF919F91D0
:100FE0008F917F916F915F914F913F912F911F91C1
:100FF0000F91FF90EF90DF90CF900F900FBE0F906A
:101000001F9018952D9A0895BC0180E090E00C94F3
:10101000370F8FB12CB193B130E02095309520740B
:101020003327A90123E0559547952A95E1F7292F04
:1010300030E02095309520713327359527953595EB
:101040002795242B8095807F822B089583B7817FFD
:1010500083BF83B7816083BF889583B78E7F83BF4B
:1010600008958EBD00000DB407FEFDCF0895EEEB90
:10107000F6E090E1969FD001A0781124A80F677048
:10108000E60FF11D9491A45BBB4F442319F08C91A2
:10109000982B03C090958C9198239C9308952F9240
:1010A0003F924F925F926F927F928F929F92AF92F8
:1010B000BF92CF92DF92EF92FF920F931F93CF9345
:1010C000DF93CDB7DEB727970FB6F894DEBF0FBE1C
:1010D000CDBF9F838E836A30A1F4DC015C962C9196
:1010E0005C9758968D919C915997B8E02B9F800DF5
:1010F000911D1124EE81FF81918F808F178A168AAE
:10110000B5C06D3009F4B2C0AE81BF8156960D9165
:101110001C91579700381105BCF0EE81FF81248D9A
:10112000422F50E086899789F6E02F9F800D911D10
:101130001124AE81BF8157969C938E9356975D96EE
:101140002C9121117DC092C0EE81FF81808C918C09
:10115000F0E48F1691040CF7AE81BF815C963C9051
:10116000C801B5E03B9E800D911D1124181619068B
:10117000A4F6432C512CC401E8E03E9E800D911D45
:101180001124181619064CF6AE81BF815B96BC91EE
:10119000BC83EE81FF81F28DFD8325E0629FB0016B
:1011A0001124CB0182549E4F3C011982F3012490FB
:1011B000F981F53009F4212C540128E02B8320FE1D
:1011C00003C03D813A8302C08C818A839A81911148
:1011D00004C0AC81BD81AB17F9F078018E2D801B66
:1011E0008315D0F465018C2D8A19831588F4E0E805
:1011F000EE16F10448F4F0E4CF16D10428F44A8145
:10120000B601C7010E9437082FEFC21AD20AEBCFEE
:101210003FEFE31AF30AE2CF26948B8181508B8350
:10122000A40CB51C8111CBCF99819F5F9983040DCC
:10123000151DD30111963D01963009F0B7CF6DCF42
:101240006AEF64039001659F300D112420583F4FD1
:10125000281739075CF4AE81BF81ED91FC9111979D
:101260000190F081E02D6AE0CD01099581E090E0E8
:1012700027960FB6F894DEBF0FBECDBFDF91CF919A
:101280001F910F91FF90EF90DF90CF90BF90AF90A4
:101290009F908F907F906F905F904F903F902F9096
:1012A00008952F923F924F925F926F927F928F920A
:1012B0009F92AF92BF92CF92DF92EF92FF920F93E5
:1012C0001F93CF93DF93CDB7DEB7A4970FB6F894F3
:1012D000DEBF0FBECDBF1092360440E160E0CE010C
:1012E00001960E9492040E94031824E030E040E03E
:1012F00050E00E947018F62E80E8A4E64A2E512C89
:10130000612C712CB2E09B2E882483948E01005FA7
:101310001F4F9E012F5F3F4F5901C12CD12CE12C53
:10132000F50190819817E9F00E940318A30192013A
:101330000E947018683271052CF4F8018182EE2445
:10134000E39412C0603571054CF4C114D10431F03E
:10135000F8018081813011F4918206C0F801118278
:1013600003C0F80180818183F50181915F01FFEF66
:10137000CF1ADF0A0F5F1F4F20E1C216D10481F69A
:10138000EE2021F241EA53E05CA34BA3EFE9AE2E3D
:10139000E1E0BE2EE12CF7E04F2E512C612C712C98
:1013A000EBA1FCA1E192FCA3EBA30E940318A30113
:1013B00092010E947018CC24C394C60E4E01F1E134
:1013C0008F0E911C9AA289A285019E012F5F3F4F2B
:1013D000190180E090E020E87FE0D72ED60EF101E1
:1013E00030813217D1F1F4012081211103C0F801BD
:1013F000118235C00E9403182AE030E040E050E03E
:101400000E94701862307105810591053CF40E94BC
:101410000318A30192010E94701809C00E940318CA
:1014200023E030E040E050E00E947018660F6D0D40
:10143000F80161830E94031822E030E040E050E0B0
:101440000E947018672B682B692B21F4F8018181A9
:1014500087508183F801818102C0F8018183F40102
:1014600021914F01F801EF5FFE4F223011F42083EC
:1014700001C01082F10121911F010F5F1F4F49A18F
:101480005AA1E417F50709F0AACF88E08E0DEBA169
:10149000FCA18783F501E058FF4F20E030E041E0F8
:1014A000F41659F0F41638F052E0F51679F083E0AE
:1014B000F816B9F021C0C1821FC0C90183709927F5
:1014C000892BC1F4C901959587950EC0C901877014
:1014D0009927892B79F4C9019595879595958795D5
:1014E00007C020FD07C0C90166E070E00E94E71850
:1014F0008C0D01C0808181832F5F3F4F3196203159
:10150000310569F6E39490E1A90EB11CE8E0EE1212
:1015100047CFA4960FB6F894DEBF0FBECDBFDF91C4
:10152000CF911F910F91FF90EF90DF90CF90BF90E0
:10153000AF909F908F907F906F905F904F903F9073
:101540002F9008951F920F920FB60F9211242F9390
:101550003F934F935F936F937F938F939F93AF933B
:10156000BF93EF93FF9384EB90E09093950080936B
:10157000940020912E0430912F048091910190913C
:101580009201820F931F90932F0480932E04209139
:101590003004309131048091930190919401820F35
:1015A000931F909331048093300420913204309142
:1015B00033048091950190919601820F931F90932F
:1015C00033048093320420913404309135048091A7
:1015D000970190919801820F931F90933504809307
:1015E000340420912D04822F8F738F3309F580915D
:1015F0002B0490912C04AC0155954795BC0168E0F3
:101600007602612D770B1124F3E095958795FA9575
:10161000E1F78627972780FF03C080E090E002C0B3
:1016200080E090E8840F951F90932C0480932B0406
:101630006091290470912A044DED59E8649FC0011E
:10164000659F900D749F900D112483569B4C909331
:101650002A04809329042F5F20932D04E0918E01AA
:10166000F0918F01099540919E0130919D01642F69
:1016700070E040912B0450912C0446235723840F93
:10168000951F20912A04422F522F550F550B232FBF
:1016900030E024233523820F931F909328048093F6
:1016A00027048091270490912804909399008093B7
:1016B0009800FF91EF91BF91AF919F918F917F9192
:1016C0006F915F914F913F912F910F900FBE0F90AF
:1016D0001F9018954091460450914704209144046E
:1016E0003091450442175307B4F49091E800957087
:1016F000E1F39091E80092FD19C08093F100809190
:1017000046049091470401968F739927892B19F409
:101710008EEF8093E80080914604909147040196F3
:10172000909347048093460481E0089580E00895F3
:10173000DF92EF92FF920F931F93CF93DF93D82EF8
:101740008A017B01E40EF51EEB01CE15DF0571F079
:10175000D7FE03C0FE01849101C088810E946A0BFC
:1017600021968111F2CF8FEF9FEF01C0C801DF9169
:10177000CF911F910F91FF90EF90DF9008956150EE
:1017800030F02091F100FC0120830196F8CF2898D9
:1017900084E680934A0408950F931F93CF93DF93B9
:1017A0001F92CDB7DEB782E0898342E450E065EE58
:1017B00076E080E80E94980B0E947B11DC01129673
:1017C0000D911C9113970115110589F0D801ED9128
:1017D000FC910280F381E02DBE016F5F7F4FC80155
:1017E000099597FD04C0F80100851185ECCF89812A
:1017F0000F90DF91CF911F910F9108951F920F923B
:101800000FB60F921124CF92DF92EF92FF920F93B7
:101810001F932F933F934F935F936F937F938F9378
:101820009F93AF93BF93EF93FF93CF93DF93CDB786
:10183000DEB76C97DEBFCDBF1092E9008091E80063
:1018400083FFFBC168E0CE0145960E94BF0B82EF8B
:101850008093E8008D8987FF05C09091E80090FF94
:10186000FCCF03C09EEF9093E800982F907609F08C
:10187000C6C09E894F89588D2F89F88C91110CC054
:10188000803829F4809143048093F10002C01092C3
:10189000F1001092F10045C1913051F4811141C124
:1018A0004130510509F03DC1809143048D7F0BC04B
:1018B000933061F4811135C14130510509F031C1D6
:1018C000809143048260809343042BC1953049F496
:1018D0008091E80080FFFCCF822F80688093E30036
:1018E00020C1963009F05EC00B8D1C8D22E0109255
:1018F000E9001092470410924604F21232C010928E
:101900004504109244040E94CC0B99E0BE016F5F25
:101910007F4FDB01E92F1D92EA95E9F79983FA825F
:1019200091E09E8390EA98879AEF998720914604E8
:1019300030914704275F3F4F3C832B838D83109268
:10194000E900109247041092460410934504009356
:10195000440449E050E080E00E94980B0E94CC0BC8
:10196000E0C010934504009344040E947B11DC0105
:1019700012960D911C9113970115110509F4BBC026
:10198000D801ED91FC910480F581E02DBE016B5EE4
:101990007F4FC8010995009709F0C7C0F80100857D
:1019A0001185EACF973009F445C1983021F481E0E0
:1019B0008093F100B6C0993009F0B3C0837009F08C
:1019C00039C1E7E5F1E081E031E096E320812111C2
:1019D00009C08EE78093EA001092EA008F89809315
:1019E0004B049FC08093E9003093EB00219120933A
:1019F000EC009093ED008F5F873041F7EACF8B8D3D
:101A00009C8D1092E9001092470410924604909326
:101A1000450480934404898D811153C08E899D892A
:101A2000913A49F4813209F005C147E050E064E0A1
:101A300071E080E0BBC0913209F0FCC0833269F4F0
:101A40008F89988DA0E0B0E0809300019093010110
:101A5000A0930201B093030164C0803269F48091C5
:101A6000E80082FFFCCF67E084E091E00E94BF0BBA
:101A70008BEF8093E80055C0823209F052C08F8905
:101A800080930B01EEEFFFE7859194918B3F9C4D86
:101A900019F0E0E0F8E002C0EEEFFAE08091040116
:101AA00090910501A0910601B0910701803B9440FF
:101AB000A105B10509F09EC080910B0180FF79C09E
:101AC00099C00E947B11FC0102811381011511054F
:101AD00009F4B0C0D801ED91FC910190F081E02DA6
:101AE000BE016B5E7F4FC801099581111AC0F801D4
:101AF00000851185EBCFF1E0FF1609F44EC0F3E04D
:101B0000FF1298C08F89882309F44AC0823089F473
:101B100040E860E189E497E00E943817882309F4DF
:101B200089C08EEF8093E80088C018161906CCF3A0
:101B300081C0813029F440E86BE08DE397E0ECCF81
:101B4000833009F077C00E947B11DC011296ED9082
:101B5000FC9013978E010F5F1F4F6801E114F10491
:101B600079F0D701ED91FC910680F781E02DB80165
:101B7000C7010995080F111DF701E084F184EECF2C
:101B8000D8011C92F60101900020E9F73197BF01BE
:101B90006C197D0940E0C601BFCF6BE277E002C05F
:101BA00067E277E0FB01449150E080E80E94980BE7
:101BB000B8CFEE3F2AE0F20751F08081918187375C
:101BC000A7E79A0721F09093FF0A8093FE0A87E720
:101BD00097E79183808380916000809348049BE025
:101BE00088E10FB6F894A895809360000FBE90939B
:101BF000600097CF808191818737974709F091CF17
:101C0000A89580916000886180936000809148046D
:101C100080936000EE3FBAE0FB0739F08091FE0A46
:101C20009091FF0A918380837CCF1092FF0A1092DB
:101C3000FE0A77CF81E28093EB006C960FB6F894A2
:101C4000DEBF0FBECDBFDF91CF91FF91EF91BF916E
:101C5000AF919F918F917F916F915F914F913F9144
:101C60002F911F910F91FF90EF90DF90CF900F90E9
:101C70000FBE0F901F901895362F90E0FC01EA538D
:101C8000F94F4491FC01EB56F84F2491FC01EA58BE
:101C9000F84F8491882309F452C04423E1F150E0C5
:101CA000FA013197EF30F105B0F5EA5AFF4F0C9485
:101CB000FB18909180009F7707C0909180009F7DD6
:101CC00003C090918000977F9093800024C094B5CA
:101CD0009F7702C094B59F7D94BD1DC090919000E8
:101CE0009F7707C0909190009F7D03C090919000D6
:101CF000977F909390000FC09091C0009F7703C092
:101D00009091C0009F7D9093C00005C09091C2004B
:101D1000977F9093C200E82FF0E0EE0FFF1FE65A86
:101D2000F84FA591B4919FB7F894311104C08C91EC
:101D30002095282302C0EC912E2B2C939FBF089551
:101D40001F93CF93DF93182FEB010E94B7102097BA
:101D500011F460E004C0CF3FD10539F461E0812F78
:101D6000DF91CF911F910C943C0EE12FF0E0EA53EC
:101D7000F94FE4918E2F90E0FC013197EF30F1059F
:101D800008F06CC0EB59FF4F0C94FB1884B58068C9
:101D900084BDC7BD68C084B5806284BDC8BD63C052
:101DA00080918000806880938000D0938900C093E8
:101DB000880059C080918000806280938000D09319
:101DC0008B00C0938A004FC0809180008860809310
:101DD0008000D0938D00C0938C0045C0809190000E
:101DE000806880939000D0939900C09398003BC086
:101DF00080919000806280939000D0939B00C0936C
:101E00009A0031C080919000886080939000D093B8
:101E10009D00C0939C0027C08091C0008068809383
:101E2000C0008091C0008F7B8093C000C093CF0022
:101E30001AC08091C00080628093C000C093D0001F
:101E400012C08091C20088608093C2008091C2005D
:101E50008B7F8093C200C093D20005C0C038D105EB
:101E60000CF07CCF76CFDF91CF911F9108958F92A8
:101E70009F92AF92BF92CF92DF92EF92FF926B014F
:101E80007C010E9401124B015C01C114D104E104E8
:101E9000F104F1F00E940112DC01CB0188199909CB
:101EA000AA09BB09883E9340A105B10570F321E062
:101EB000C21AD108E108F10888EE880E83E0981E66
:101EC000A11CB11CC114D104E104F10419F7DDCF48
:101ED000FF90EF90DF90CF90BF90AF909F908F904A
:101EE000089520914B04211103C08FEF9FEF0895B7
:101EF0005FB7F89422E02093E9002091F20030E0EF
:101F00001216130614F421E030E0422FFC0184E69F
:101F1000415038F0289880934A049091F1009193B1
:101F2000F7CF2115310521F08091F200882319F0B7
:101F30005FBFC90108958BE68093E800F9CF2FB702
:101F4000F89483E08093E9009091E800892F8072F3
:101F500095FF04C09091F20080E4891B2FBF089583
:101F6000CF93DF931F92CDB7DEB76983DC01ED918C
:101F7000FC910280F381E02D41E050E0BE016F5FF3
:101F80007F4F09950F90DF91CF91089583E0809363
:101F9000E9008091F200882319F08AE38093E80039
:101FA00008950E949F0F90E00895CF93DF931F92B2
:101FB000CDB7DEB7FC018485958597FD05C02FEF71
:101FC0003FEF358724870BC0CE0101960E94710F29
:101FD000019719F4898190E002C08FEF9FEF0F9075
:101FE000DF91CF9108950F931F93CF93DF931F92AB
:101FF000CDB7DEB78C01FC018485958597FF0EC0B7
:10200000CE0101960E94710F019719F4898190E029
:1020100002C08FEF9FEFF80195878487F8018485D0
:1020200095850F90DF91CF911F910F910895FC013D
:102030008485958597FD0BC09FB7F89482E08093C7
:10204000E9008091F2009FBF90E0019608959FB74C
:10205000F89482E08093E9008091F2009FBF90E0C5
:1020600008958F929F92AF92BF92CF92DF92EF929C
:10207000FF920F931F93CF93DF936C017B018A0133
:1020800080910B01882309F45CC080914B04882364
:1020900009F457C08091490480FF05C08091E00099
:1020A00082608093E000E801B12C8AEFA82E93E0D3
:1020B000892E2AE3922E209711F4BB20D9F10E9499
:1020C0009F0F81110AC0AA94AA20D9F161E070E0A3
:1020D00080E090E00E94370FEECF282F30E0C2174B
:1020E000D3070CF48C2F9FB7F8948092E9002091CD
:1020F000E80025FF1DC0282F30E0C21BD30BF701DD
:10210000815020F041914093F100FACFE20EF31E8E
:10211000BB2019F09092E8000AC08091E80085FD8C
:1021200007C09092E800BB24B394209709F0B12C2B
:102130009FBFC1CF5D9884E680937008101611068A
:1021400044F081E090E0F6019383828380E090E0A8
:1021500001C0C801DF91CF911F910F91FF90EF90C7
:10216000DF90CF90BF90AF909F908F90089590E0B8
:10217000FC01EB56F84F2491FC01EA58F84F84918A
:10218000882399F090E0880F991FFC01E859F84FD7
:10219000A591B491FC01E65AF84F859194918FB7BF
:1021A000F894EC91E22BEC938FBF08950F931F935B
:1021B000CF93DF938C01C0E0D0E0F801EC0FFD1F5E
:1021C0006491662341F082E598E00E944F08892BD4
:1021D00011F02196F2CFCE01DF91CF911F910F9197
:1021E0000895EF92FF920F931F93CF93DF937C019B
:1021F0008B01040F111DEB0177FF02C0C0E0D0E09E
:10220000C8010134110514F080E490E0C817D90723
:102210005CF480E8E816F10428F441E0BE01C7014F
:102220000E9437082196ECCFDF91CF911F910F913B
:10223000FF90EF9008959C01295F3F4F27383105AB
:1022400060F5FC0197FF02C0E0E0F0E008968138FD
:10225000910514F080E890E08E1B9B0127703327D6
:1022600091E001C0990F2A95EAF777FF02C0695FF4
:102270007F4F23E0759567952A95E1F77695762F40
:10228000662777956795E60FF71FE45BFB4F815054
:1022900020F02081292B2193FACF089520E08CE4AF
:1022A00094E0B22FB111BFEFFC010024B193B193C0
:1022B000B193B1930394D1F7089520915C0828233A
:1022C00029F490915B08982381E009F480E0089557
:1022D00080914C048EBDEDE4F4E08CE498E0219113
:1022E0000DB407FEFDCF2EBD8E179F07C1F70DB4AD
:1022F00007FEFDCF08958091750881110DC082E021
:102300008093710884E08093720810927408109290
:10231000730881E08093750881E798E008951F9223
:102320000F920FB60F9211248F939F938091E1002B
:102330009091E100937F9093E10083FF0FC0109292
:10234000E90091E09093EB001092EC0092E39093FF
:10235000ED0010924B0498E09093F00082FF20C0B3
:1023600093E09093E9009091F200992319F09AE399
:102370009093E80090917008992339F0909170083B
:10238000915090937008992389F190914A04992370
:1023900039F090914A04915090934A04992341F165
:1023A00084FF10C08091E2008E7E81608093E20005
:1023B0008091E1008F7E8093E100809149048E7EC0
:1023C000806111C080FF16C08091E2008E7E806126
:1023D0008093E2008091E1008E7E8093E100809105
:1023E00049048E7E81608093490404C05D9ACDCFFC
:1023F000289AD6CF9F918F910F900FBE0F901F906C
:1024000018953FB7F8948091E0089091E108A09169
:10241000E208B091E30826B5A89B05C02F3F19F04C
:102420000196A11DB11D3FBFBA2FA92F982F882754
:10243000820F911DA11DB11DBC01CD0142E0660FAF
:10244000771F881F991F4A95D1F708951F920F9201
:102450000FB60F9211242F933F938F939F93AF93B7
:10246000BF938091DB089091DC08A091DD08B091CA
:10247000DE083091DF0823E0230F2D3720F401968A
:10248000A11DB11D05C026E8230F0296A11DB11D97
:102490002093DF088093DB089093DC08A093DD088D
:1024A000B093DE088091E0089091E108A091E208E5
:1024B000B091E3080196A11DB11D8093E0089093AF
:1024C000E108A093E208B093E308BF91AF919F9118
:1024D0008F913F912F910F900FBE0F901F901895E5
:1024E000789484B5826084BD84B5816084BD85B5EF
:1024F000826085BD85B5816085BD80916E008160FB
:1025000080936E00109281008091810082608093A0
:1025100081008091810081608093810080918000A2
:10252000816080938000809191008260809391000F
:1025300080919100816080939100809190008160F2
:10254000809390008091C10084608093C10080914D
:10255000C10082608093C1008091C100816080933E
:10256000C1008091C30081608093C3008091C0004E
:1025700082608093C0008091C20081608093C2001D
:1025800080917A00846080937A0080917A008260E2
:1025900080937A0080917A00816080937A008091A4
:1025A0007A00806880937A0010924B041092430462
:1025B000109249048091D70081608093D70080EA0F
:1025C0008093D80089B5806189BD89B5826089BD55
:1025D00009B400FEFDCF61E070E080E090E00E9471
:1025E000370F8091D8008F7C80618093D8008091D4
:1025F000E000807F8093E0008091E1008E7E8093F8
:10260000E1008DE08093E200559A209A87E594E0FE
:1026100090938F0180938E0185E00E94B7108DE02A
:102620000E94B71060E08DE00E943C0E81E880932C
:10263000900081E0809391008093710020E530E06C
:10264000309399002093980091EC90937C0095B181
:10265000906F95B9249894B1966E94B95E9A5F98EC
:102660009AB1906D9AB9769A6E9891B3906F91BB2A
:10267000899890B39D7090BB90E59CBD8DBD85E021
:1026800090E00E9404085F9A85E090E00E940408B0
:102690005E985C98C8E9D1E0FE0184910E943108FF
:1026A0002196F1E0C53ADF07B9F75C9A81E880939B
:1026B000640081E08093650000E014E080E00E9407
:1026C000310801501109D1F70E94090887FF1FC086
:1026D0005C9885EA0E9431085C9A2E982F982D9874
:1026E000809164008062809364000E942608FDCF80
:1026F0002D980E9409088478843871F00E94090896
:102700008471843131F188EC90E00E9404080E94C9
:10271000090882FDEDCF3AC00E94020888EC90E0E3
:102720000E9404082F9882E090E00E945A188F3F80
:1027300029F06FEF82E090E00E94621884EF91E050
:102740000E9404082F9A0E94090884788438D9F3DB
:10275000D5CF0E94020888EC90E00E9404082E98D1
:1027600082E090E00E945A18882329F060E082E01D
:1027700090E00E94621884EF91E00E9404082E9A73
:102780000E94090884718431D9F3BDCF0E940208E8
:1027900082E090E00E945A18882331F03E9A3F9AD6
:1027A00081E08093900104C0109290013E983F9880
:1027B0002E98CEEEDFEFB8E0AB2EB12C0E940908C8
:1027C00086FF05C02E9A2F9A0E94020881C0CC3F36
:1027D0004FEFD40719F42E9A2F9805C0C831D105B0
:1027E00011F42F9A2D980E944E11C03F5FEFD5072C
:1027F00084F40E9468118BE190E00E940408C03FBD
:102800008FEFD80709F055C08AEF90E00E940408C6
:1028100050C09E01D7FF04C0222733272C1B3D0B3D
:1028200027703327CE01D7FD0796A3E095958795AE
:10283000AA95E1F7D7FF05C00197D501A21BB30BFD
:102840009D01AC015695542F442757954795445BFD
:102850005B4F60E070E04501821A930A8F3FBFEF43
:102860009B074CF40196685A7F4F40585F4F603B7E
:102870007105A1F7BECF7A01E4E9EE0EF11C6A0101
:10288000A0E0B0E08F3FFFEF9F0709F47FC2FD019A
:10289000E60FF71FE851FF4FE491F0E03F01022EF1
:1028A00001C0660C0A94EAF7F60174886728648A06
:1028B0006DC22196C931D10509F080CF8CEB92E031
:1028C0000E9404080E94020882E598E00E94F41623
:1028D00082E390E00E9404080E9409088111F8CF69
:1028E00080E180935D081092E5031092E40320914B
:1028F0002404A6EEB3E0220F330B80E090E0F90150
:10290000E80FF91FE05FFE4F408151814D935D93C9
:1029100002968E33910599F74FE951E028E03FEF99
:1029200080E090E0FC01EE5FFD4FE40FF51F308387
:10293000019688309105B1F72150485F5F4F211112
:10294000EFCFF801E056FE4F80E11192DF01A15078
:10295000BF4F1C928150C9F7005F1F4F0115F1E076
:102960001F0779F7809164008E7F809364008091C7
:102970007A00806480937A0080917A0086FDFCCF93
:10298000C0917800D09179000E9401128E0120E060
:1029900030E0980111270027600F711F821F931FDD
:1029A000611571058105910511F00E945118809102
:1029B00064008160809364000E9451091092500865
:1029C00085E08093E1038EE498E090932604809361
:1029D000250440E0442E40E0542E662463948C018C
:1029E00050E2752E60E3862E70E4B72E2FB7F89470
:1029F0008091DB089091DC08A091DD08B091DE08A1
:102A00002FBF20916608222341F020915E08821B8F
:102A10008093670810926608B2C140916208509195
:102A20006308609164087091650884179507A6078C
:102A3000B70738F4481B423008F4A1C10E942608A9
:102A40009EC16092660880935E0890935F08A09391
:102A50006008B093610820915D08820F911DA11D4F
:102A6000B11D8093620890936308A0936408B093AB
:102A700065088091590890915A08019690935A08D8
:102A80008093590880915B0880935C080E94090834
:102A900080935B0880919E01882339F080919E018C
:102AA00090E09595879580939E0180919D01882364
:102AB00039F080919D0190E09595879580939D01D7
:102AC000809199012091E2033091E303882339F149
:102AD0002F3028F5E32FF0E0EF55FC4FE08140E187
:102AE000E49FF0011124E156FE4FE20FF11DA18198
:102AF000B0E0AA0FBB1FAC51BC4FE281F0E0EE0F7B
:102B0000FF1FEC51FC4F4D915C91808191814817E2
:102B1000590729F080919901885080939901832F5A
:102B200090E0DC01A156BE4F7D01FD01E65FFD4F47
:102B30009080E22FF0E0DF01C0E19C9EA00DB11D6E
:102B40001124A156BE4F11964C91119750E0440F9D
:102B5000551F4C515C4FEA01C880D98040919A01C1
:102B6000442399F02F3088F41296AC91B0E0AA0F6C
:102B7000BB1FAC51BC4F4D915C91C416D50629F0DA
:102B800040919A01445040939A01D701AE5FBD4FE6
:102B9000AC90DFEFAD16B9F1DF0140E1A49EA00DCE
:102BA000B11D1124A156BE4FAD014F5F5E4FEA012A
:102BB0004881423041F540919101509192012F306E
:102BC00079F4DC011196A170BB27A156BE4FAE5F10
:102BD000BD4FAC91D0E1AD9FD0011124A156BE4FA5
:102BE0001196AC91B0E0AA0FBB1FAC51BC4F4D91F8
:102BF0005C918091910190919201892B21F0411576
:102C0000510509F0E4C06091E10370E0809159083A
:102C100090915A080E94D318892B09F07BC04FEF7E
:102C2000A416F9F0DF0150E1A59EA00DB11D1124FD
:102C3000A156BE4F1196AC91B0E0AA0FBB1FAC518C
:102C4000BC4F8D919C9140919101509192018417BC
:102C5000950749F09093920180939101B092990168
:102C600002C0109299018FEF981671F08091930134
:102C700090919401C816D90649F0D0929401C0925F
:102C8000930180929A0102C010929A01D701AE5E20
:102C9000BD4F8C918F3FB1F090E1899FE00DF11D08
:102CA0001124E156FE4FE181F0E0EE0FFF1FEC51E1
:102CB000FC4F808191819093960180939501709251
:102CC0009B0102C010929B012F5F203119F02093CD
:102CD000E2030AC01092E2033F5F323019F03093F2
:102CE000E30309C01092E3038091E20380FF03C075
:102CF0006FEE70E002C06FEF70E08AE00E94A00EFD
:102D00006FEF70E08BE00E94A00E6FEF70E089E043
:102D10000E94A00E6091E10370E0809159089091AB
:102D20005A080E94D318892B51F48091E203811133
:102D300006C08091E303811102C00E945109809175
:102D4000250490912604DC01ED91FC910280F38131
:102D5000E02D09957C018091250490912604EC01D9
:102D6000E881F9810480F581E02D09950E946811C0
:102D7000EA94EF2821F410932604009325044114CB
:102D8000510409F433CE0E94000030CE21153105E4
:102D900091F0FD01E60FF71FE851FF4FE491F0E0DD
:102DA0003F01082C02C0759467940A94E2F7F7017A
:102DB0007080672860821196FFEFEF1AFF0AEFEF2D
:102DC000CE1ADE0AA835B10509F05CCD4BCD809155
:102DD000910190919201840F951F969587959093FC
:102DE0009201809391010FCF0F931F93CF93DF93A5
:102DF0008C0181E090E00E945A1880FF31C08AE087
:102E000090E00E945A189FEF980F9E3F48F522E3EA
:102E100030E0D80157963C932E93569728E330E044
:102E200059963C932E935897CBE0D0E0D801ED9182
:102E3000FC910190F081E02D682FC8010995CE0129
:102E40000E945A182196C131D10581F70E9468115C
:102E500088EE93E0DF91CF911F910F910C940408BD
:102E6000DF91CF911F910F91089504970C94F41660
:102E7000DF92EF92FF920F931F93CF93DF93D82EA1
:102E8000F92EE42E062F10E0C8010196880F0E944B
:102E90006A0B83E00E946A0BCD2DDF2D0C0F1D1FE6
:102EA000C017D10789F0E7FE03C0FE01849101C07D
:102EB00088810E946A0BF82E80E00E946A0B8F21A5
:102EC00021968111EDCF01C081E0DF91CF911F915B
:102ED0000F91FF90EF90DF900895EDE7F8E01382F7
:102EE000128288EE93E0A0E0B0E084839583A6830D
:102EF000B78381E691E0918380838FEF9FEF958781
:102F00008487E2E5F8E0138212821186128620E1BE
:102F1000238790878783108A118A128A138A148ADA
:102F200083E791E09183808381E891E095838483B6
:102F3000178A168A118E108E81E0828F138E848FED
:102F4000158E89E494E090934D0880934C0880E0BE
:102F500090E89093DA088093D90846983E9A47986B
:102F60003F9A87E891E090934F0880934E08089528
:102F70008F929F92AF92BF92CF92DF92EF92FF9289
:102F8000CF93DF93EC01688179818A819B81611500
:102F900071058105910521F464E279ED8BE597E0F7
:102FA0002DE133EF41E050E00E94701849015A01D1
:102FB0009B01AC01A7EAB1E40E948F186B017C0170
:102FC000ACEEB4EFA50194010E949D18DC01CB0189
:102FD0008C0D9D1DAE1DBF1DB7FF03C00197A1093C
:102FE000B04888839983AA83BB83BC01CD019F77B6
:102FF000DF91CF91FF90EF90DF90CF90BF90AF9097
:103000009F908F9008958F929F92AF92BF92CF9290
:10301000DF92EF92FF9260910C0170910D0180910F
:103020000E0190910F01611571058105910521F443
:1030300064E279ED8BE597E02DE133EF41E050E07C
:103040000E94701849015A019B01AC01A7EAB1E442
:103050000E948F186B017C01ACEEB4EFA5019401C6
:103060000E949D18DC01CB018C0D9D1DAE1DBF1D66
:10307000B7FF03C00197A109B04880930C0190935A
:103080000D01A0930E01B0930F01BC01CD019F77FC
:10309000FF90EF90DF90CF90BF90AF909F908F9078
:1030A000089560930C0170930D0180930E0190932D
:1030B0000F010895F999FECF92BD81BDF89A992725
:1030C00080B50895262FF999FECF1FBA92BD81BD14
:1030D00020BD0FB6F894FA9AF99A0FBE019608959A
:1030E000052E97FB1EF400940E94871857FD07D009
:1030F0000E94A21807FC03D04EF40C948718509538
:103100004095309521953F4F4F4F5F4F08959095D3
:103110008095709561957F4F8F4F9F4F08950E94C6
:10312000C418A59F900DB49F900DA49F800D911D74
:1031300011240895B7FF0C948F180E948F18821BDA
:10314000930B0895A1E21A2EAA1BBB1BFD010DC013
:10315000AA1FBB1FEE1FFF1FA217B307E407F50747
:1031600020F0A21BB30BE40BF50B661F771F881F23
:10317000991F1A9469F760957095809590959B01B9
:10318000AC01BD01CF010895A29FB001B39FC00162
:10319000A39F700D811D1124911DB29F700D811D83
:1031A0001124911D0895AA1BBB1B51E107C0AA1F42
:1031B000BB1FA617B70710F0A61BB70B881F991FD8
:1031C0005A95A9F780959095BC01CD01089597FB7C
:1031D000072E16F4009407D077FD09D00E94D3186B
:1031E00007FC05D03EF4909581959F4F089570950A
:1031F00061957F4F0895EE0FFF1F0590F491E02D2C
:10320000099481E090E0F8940C940619F894FFCFAB
:10321000FFFFFFFF00E100000000000001000000D0
:10322000060126014A015D018801B801EE010B0289
:103230004B029302BA0210037003DC0317049704D5
:10324000270575052006E006B8072D082D094D0A4B
:10325000EA0A400CC00D6F0F5A105B129A14D41575
:103260008018801BDE1E00C180810000000000006D
:1032700000B00F3110D10FC60F1710D50FF30F008C
:103280000000004F0805044E044D04F416FCFF0036
:0E3290000035170000000051049A066B05007F
:00000001FF
