:100000000C9483030C94AB030C94AB030C94AB03E0
:100010000C94AB030C94AB030C94AB030C94AB03A8
:100020000C94AB030C94AB030C94FC0C0C946E0D71
:100030000C94AB030C94AB030C94AB030C94AB0388
:100040000C94AB030C94AB030C94AB030C94AB0378
:100050000C94AB030C94AB030C94AB030C944111C4
:100060000C94AB030C94AB030C94AB030C94AB0358
:100070000C94AB030C94AB030C94AB030C94AB0348
:100080000C9496070C94AB030C94AB030C94B80936
:100090000C94AB030C94AB030C94AB030C94AB0328
:1000A0000C94AB030C94AB030C94AB03121015101F
:1000B000041008100C1036103610361019101D10D0
:1000C000211027102B1036103110711076107B1074
:1000D00085108F10D910D910D9109910A310AD1018
:1000E000B710C410D910CC103E0053504545440001
:1000F0004D555349432047454E20504F434B45549F
:100100000000000000003E5B4F5B3E3E6B4F6B3ECD
:100110001C3E7C3E1C183C7E3C181C577D571C1C0A
:100120005E7F5E1C00183C1800FFE7C3E7FF001865
:10013000241800FFE7DBE7FF30483A060E2629794E
:100140002926407F050507407F05253F5A3CE73CAF
:100150005A7F3E1C1C08081C1C3E7F14227F221460
:100160005F5F005F5F06097F017F006689956A60B7
:100170006060606094A2FFA29408047E04081020CE
:100180007E201008082A1C08081C2A08081E1010C7
:1001900010100C1E0C1E0C30383E3830060E3E0E71
:1001A00006000000000000005F00000007000700DC
:1001B000147F147F14242A7F2A12231308646236C2
:1001C000495620500008070300001C22410000414E
:1001D000221C002A1C7F1C2A08083E080800807088
:1001E00030000808080808000060600020100804BB
:1001F000023E5149453E00427F400072494949460E
:100200002141494D331814127F1027454545393C8B
:100210004A49493141211109073649494936464978
:1002200049291E000014000000403400000008149A
:100230002241141414141400412214080201590913
:10024000063E415D594E7C1211127C7F4949493668
:100250003E414141227F4141413E7F494949417FE1
:10026000090909013E414151737F0808087F004197
:100270007F41002040413F017F081422417F4040E0
:1002800040407F021C027F7F0408107F3E414141B5
:100290003E7F090909063E4151215E7F0919294621
:1002A000264949493203017F01033F4040403F1F37
:1002B0002040201F3F4038403F631408146303046C
:1002C0007804036159494D43007F414141020408CC
:1002D0001020004141417F0402010204404040409F
:1002E00040000307080020545478407F28444438D5
:1002F0003844444428384444287F3854545418001F
:10030000087E090218A4A49C787F0804047800449D
:100310007D40002040403D007F1028440000417F88
:1003200040007C047804787C080404783844444411
:1003300038FC1824241818242418FC7C0804040809
:10034000485454542404043F44243C4040207C1C22
:100350002040201C3C4030403C44281028444C9015
:1003600090907C4464544C4400083641000000776F
:100370000000004136080002010204023C26232648
:100380003C1EA1A161123A4040207A38545455597C
:1003900021555579412154547841215554784020B4
:1003A000545579400C1E52721239555555593954CD
:1003B00054545939555454580000457C4100024565
:1003C0007D420001457C40F0292429F0F0282528B1
:1003D000F07C545545002054547C547C0A097F49D4
:1003E00032494949323248484832324A4848303A1C
:1003F0004141217A3A42402078009DA0A07D3944B5
:100400004444393D4040403D3C24FF2424487E493B
:1004100043662B2FFC2F2BFF0929F620C0887E096D
:100420000320545479410000447D413048484A3209
:10043000384040227A007A0A0A727D0D19317D26F1
:1004400029292F28262929292630484D40203808D7
:1004500008080808080808382F10C8ACBA2F102858
:1004600034FA00007B000008142A142222142A14F3
:10047000089500220095AA005500AAAA55AA55AAD7
:10048000000000FF00101010FF00141414FF0010F3
:1004900010FF00FF1010F010F0141414FC001414DE
:1004A000F700FF0000FF00FF1414F404FC141417FD
:1004B000101F10101F101F1414141F00101010F024
:1004C000000000001F101010101F10101010F0106E
:1004D000000000FF101010101010101010FF10007E
:1004E0000000FF140000FF00FF00001F10170000B5
:1004F000FC04F414141710171414F404F40000FF8F
:1005000000F714141414141414F700F71414141727
:100510001410101F101F141414F4141010F010F005
:1005200000001F101F0000001F14000000FC14003A
:1005300000F010F01010FF10FF141414FF1410102E
:10054000101F00000000F010FFFFFFFFFFF0F0F0B1
:10055000F0F0FFFFFF0000000000FFFF0F0F0F0F84
:100560000F38444438447C2A2A3E147E0202060690
:10057000027E027E0263554941633844443C044094
:100580007E201E2006027E020299A5E7A5991C2A5C
:10059000492A1C4C7201724C304A4D4D303048781B
:1005A0004830BC625A463D3E494949007E0101013E
:1005B0007E2A2A2A2A2A44445F444440514A44401D
:1005C00040444A51400000FF0103E080FF00000862
:1005D000086B6B083612362436060F090F0600002A
:1005E00018180000001010003040FF0101001F012A
:1005F000011E00191D1712003C3C3C3C000000008D
:10060000000102040810204080D5F08D14A1C8819B
:10061000CFD9F1AF2000080B00020202010009044B
:100620000000010202000005240010010524010160
:1006300001042402060524060001070581031000B9
:100640004009040100020A00000007050202400000
:1006500000070583024000000403090412010002A0
:10066000EF02014041233680000101020301417283
:100670006475696E6F204C4C430041726475696EFD
:100680006F204C656F6E6172646F00000000002582
:100690000028002B002E003100000000002400275D
:1006A000002A002D003000040404040403040502A1
:1006B00002020204030202020206060606060604FD
:1006C00004020202040404080201104080401020C9
:1006D0004080408008020401804020100201108008
:1006E00010204040200000000200090F0000030419
:1006F00001000C00000000000000000000000000ED
:1007000000000000E31411241FBECFEFDAE0DEBFCB
:10071000CDBF11E0A0E0B1E0E0EEFCE202C0059048
:100720000D92AE38B107D9F727E0AEE8B1E001C0CD
:100730001D92A33EB207E1F713E0C3E8D3E004C083
:100740002197FE010E946316C238D107C9F70E94A3
:10075000CF110C946E160C940000FC01128285E0FF
:100760008093FE020895809195019091960197FFE4
:1007700005C08091B401282F30E002C020E030E0B5
:10078000809197019091980197FF05C09091B501D4
:10079000892F90E002C080E090E0820F931F2091AB
:1007A000990130919A0137FF04C02091B60130E0E1
:1007B00002C020E030E0820F931F20919B01309116
:1007C0009C0137FF04C02091B70130E002C020E057
:1007D00030E0820F931F0895CF92DF92EF92FF9245
:1007E0000F931F93CF93DF936C017A018B01C0E0CD
:1007F000D0E0CE15DF0581F0D8016D918D01D601D5
:10080000ED91FC910190F081E02DC6010995892BB5
:1008100011F02196EECF7E01C701DF91CF911F919C
:100820000F91FF90EF90DF90CF90089580919E01FF
:10083000E091A101F091A201882349F0CF01029635
:100840009093A2018093A101859194910895CF0185
:1008500002969093A2018093A101808191810895D5
:1008600080E008950895089580E090E00895BC0127
:1008700080E090E00C9407110E946916CF92DF92FD
:10088000EF92FF920F931F93CF93DF93EC01162FFC
:10089000042F0E9479152AE0C22ED12CE12CF12CD4
:1008A000A70196010E94D815043009F47AC038F4E3
:1008B000013009F4AAC0023009F0B0C090C008307D
:1008C00049F1003121F0063009F0A8C04CC0623077
:1008D000710514F442E004C0653071057CF444E015
:1008E000612FCE010E943E04DF91CF911F910F91A5
:1008F000FF90EF90DF90CF900C94791548E0612F36
:10090000CE010E943E04185F0E947915A70196014E
:100910000E94D815643071056CF490919D0181E0BE
:10092000890F80939D01C10FD11D88E0999381505B
:10093000E9F774C0663071057CF442E0612FCE01A6
:100940000E943E041E5F0E9479152AE030E040E0DC
:1009500050E00E94D81507C044E0612FCE010E94EC
:100960003E041C5F16C0643071056CF490919D01CB
:1009700081E0890F80939D01C10FD11D86E099937D
:100980008150E9F74BC042E0612FCE010E943E0446
:100990001E5F0E9479152AE030E040E050E00E949E
:1009A000D815653071056CF490919D0181E0890F37
:1009B00080939D01C10FD11D84E099938150E9F787
:1009C0002DC042E0612FCE010E943E041E5F0E94B6
:1009D00079152AE030E040E050E00E94D8156830F8
:1009E00071055CF480919D0191E0980F90939D01B9
:1009F000C10FD11D8883898311C041E0612FCE01D1
:100A00000E943E041F5F0E94791580919D0191E034
:100A1000980F90939D01C10FD11D8883DF91CF91D5
:100A20001F910F91FF90EF90DF90CF9008952F923C
:100A30003F924F925F926F927F928F929F92AF926E
:100A4000BF92CF92DF92EF92FF920F931F93CF93BB
:100A5000DF93CDB7DEB7A4970FB6F894DEBF0FBE15
:100A6000CDBF10929D0140E160E0CE0101960E9451
:100A70003E040E94791524E030E040E050E00E94FE
:100A8000D8156AA37E0131E1E30EF11C5E0181E21B
:100A9000A80EB11C8701FE0131966F0180E8AAE023
:100AA0004A2E512C612C712CF6019081981781F0FF
:100AB0000E947915A30192010E94D81521E06530AA
:100AC0007105810591050CF420E0F801208305C033
:100AD000F80131978081F8018083F60181916F01DF
:100AE0000F5F1F4F0A151B05F9F68EEB92E09CA3D2
:100AF0008BA3ECEBCE2EE1E0DE2E19A2F7E02F2E39
:100B0000312C412C512CEBA1FCA139A13193FCA338
:100B1000EBA30E947915A20191010E94D8156624C9
:100B20006394660E47018601CE0101965C0180E068
:100B300090E020E87FE0772E760EF50130813217C5
:100B4000D1F1F4012081211103C0F801118235C0D7
:100B50000E9479152AE030E040E050E00E94D8156C
:100B600062307105810591053CF40E947915A2015E
:100B700091010E94D81509C00E94791523E030E048
:100B800040E050E00E94D815660F670DF8016183C0
:100B90000E94791522E030E040E050E00E94D81534
:100BA000672B682B692B21F4F801818187508183A1
:100BB000F801818102C0F8018183F50121915F0173
:100BC0000F5F1F4FFFEF8F1A9F0AAE14BF0409F08B
:100BD000B4CF89A1885FEBA1FCA18783F601E0581F
:100BE000FF4F20E030E08AA1813041F028F08230D0
:100BF00071F08330B9F021C061821FC0C9018370D8
:100C00009927892BC1F4C901959587950EC0C90113
:100C100087709927892B79F4C901959587959595C2
:100C2000879507C020FD07C0C90166E070E00E94FB
:100C30004F16860D01C0808181832F5F3F4F319613
:100C40002031310581F699A19F5F99A3E0E1CE0E95
:100C5000D11C983009F057CFA4960FB6F894DEBF98
:100C60000FBECDBFDF91CF911F910F91FF90EF90FD
:100C7000DF90CF90BF90AF909F908F907F906F90BC
:100C80005F904F903F902F9008958F929F92AF92D8
:100C9000BF92CF92DF92EF92FF920F931F93CF9369
:100CA000DF93CDB7DEB7A1970FB6F894DEBF0FBEC6
:100CB000CDBF6C0120E08AE493E0B22FB111BFEF09
:100CC000FC010024B193B193B193B1930394D1F794
:100CD00010926907109268071092670710926607D2
:100CE00080EF90E00E94870C8AE090E09093670785
:100CF0008093660709E010E0109369070093680786
:100D00008AEE90E00E94870C8DE290E09093670756
:100D10008093660710936907009368072091FE028D
:100D200030E040E050E019A28E010F5D1F4F6AE0F5
:100D3000862E912CA12CB12CCA01B901A5019401D8
:100D40000E940A16605DF80162938F01211531053A
:100D50004105510589F7309761F001900020E9F7CE
:100D60003197AF01401B510BB80180E597E00E941D
:100D7000EC03A12CB12CE12CF12C20E2822E912C41
:100D80000091000310E004541E4FF801EE5FFE4F87
:100D90008081F70130E1839FE00DF11D1124E454BF
:100DA000FE4F8181B401681B7109660F771F22E035
:100DB00048E0C5010E94A20CF801E65FFE4F808169
:100DC000F70190E1899FE00DF11D1124E454FE4FDD
:100DD0008181B401681B7109660F771F22E048E02A
:100DE000C5010E94A20CEFEFEE1AFE0AF8E0AF0E6A
:100DF000B11C30E1E316F10419F68091FF0220E402
:100E000041E060E070E0E8E08E9FC00111240E94A4
:100E1000A20CF601828190E0019649E0489F900182
:100E2000499F300D11241092670710926607309386
:100E30006907209368078091570780FD04C088EEFA
:100E400090E00E94870CA1960FB6F894DEBF0FBE0B
:100E5000CDBFDF91CF911F910F91FF90EF90DF9069
:100E6000CF90BF90AF909F908F900895CF93DF93D6
:100E7000EC0188E00E94DE0C8823C9F08FE38093A8
:100E8000B8018A81823081F028F4882349F08130CA
:100E900059F00DC0843041F030F0853029F007C0A2
:100EA0001092BC013EC083E08093BC013AC084E054
:100EB0000E94DE0C882319F08FE38093B90180E84B
:100EC0000E94DE0C882329F08A81882311F081504A
:100ED0008A8380E10E94DE0C882329F08A81853094
:100EE00010F48F5F8A8380E20E94DE0C882351F029
:100EF0008A81811107C08091FE02843018F08150F0
:100F00008093FE0280E40E94DE0C882351F08A81E7
:100F1000811107C08091FE028A3018F48F5F8093A0
:100F2000FE0280E090E0DF91CF9108951F920F9232
:100F30000FB60F921124CF92DF92EF92FF920F9390
:100F40001F932F933F934F935F936F937F938F9351
:100F50009F93AF93BF93CF93DF93EF93FF938091D2
:100F6000A6019091A701A091A801B091A901892B98
:100F70008A2B8B2B89F18091A50181110BC098B12F
:100F800080E4892788B98091A401882319F088B169
:100F9000805888B98091A6019091A701A091A801DD
:100FA000B091A901181619061A061B060CF0ADC05F
:100FB0008091A6019091A701A091A801B091A901EB
:100FC0000197A109B1098093A6019093A701A0936D
:100FD000A801B093A90199C00E941604811520E8C8
:100FE000920761F4809171008D7F8093710010925F
:100FF0009100469847981092A30187C021E0209362
:10100000A301813020E8920731F41092A2011092DE
:10101000A1010E94160497FD05C02091A001222382
:1010200009F43FC020919F0121113BC021E0209392
:10103000A401EC01DF77209769F481E08093A5019A
:1010400046983FE9C32E3FE0D32EE12CF12CCAEFA6
:10105000D0E014C08E0120E030E060E472E48FE064
:1010600090E0A90198010E94D81569017A0181E0F8
:10107000C81AD108E108F1081092A501E0914A07C9
:10108000F0914B070995811103C081E08093A50180
:101090008091A4018823B9F18091A501811133C009
:1010A00003C01092A401C5CF46992DC0479A0E9453
:1010B0001604009771F09C01DE010E942C16DC01E1
:1010C000CB0129E0B595A795979587952A95D1F7F6
:1010D00003C08FEF9FEFDC01109290002AE0209375
:1010E0009100D0929900C09298008093A6019093AD
:1010F000A701A093A801B093A9018091710082601B
:101100008093710002C04798D2CFFF91EF91DF9199
:10111000CF91BF91AF919F918F917F916F915F918F
:101120004F913F912F911F910F91FF90EF90DF9082
:10113000CF900F900FBE0F901F901895E1E0F6E052
:1011400090E1969FD001A0781124A80F6770E60F58
:10115000F11D9491A65BBC4F442319F08C91982B00
:1011600003C090958C9198239C9308952F923F9261
:101170004F925F926F927F928F929F92AF92BF92A7
:10118000CF92DF92EF92FF920F931F93CF93DF9353
:10119000CDB7DEB727970FB6F894DEBF0FBECDBF31
:1011A0009F838E836A30A1F4DC015C962C915C975E
:1011B00058968D919C915997B8E02B9F800D911D69
:1011C0001124EE81FF81918F808F178A168AB5C016
:1011D0006D3009F4B2C0AE81BF8156960D911C915D
:1011E000579700381105BCF0EE81FF81248D422F06
:1011F00050E086899789F6E02F9F800D911D11247C
:10120000AE81BF8157969C938E9356975D962C9195
:1012100021117DC092C0EE81FF81808C918CF0E421
:101220008F1691040CF7AE81BF815C963C90C8018B
:10123000B5E03B9E800D911D112418161906A4F6E9
:10124000432C512CC401E8E03E9E800D911D1124D9
:10125000181619064CF6AE81BF815B96BC91BC8313
:10126000EE81FF81F28DFD8325E0629FB0011124A4
:10127000CB018F5F9E4F3C011982F3012490F981CD
:10128000F53009F4212C540128E02B8320FE03C003
:101290003D813A8302C08C818A839A81911104C076
:1012A000AC81BD81AB17F9F078018E2D801B8315C1
:1012B000D0F465018C2D8A19831588F4E0E8EE16C8
:1012C000F10448F4F0E4CF16D10428F44A81B601C1
:1012D000C7010E949E082FEFC21AD20AEBCF3FEF40
:1012E000E31AF30AE2CF26948B8181508B83A40CFE
:1012F000B51C8111CBCF99819F5F9983040D151D7A
:10130000D30111963D01963009F0B7CF6DCF6AEF4A
:1013100064039001659F300D112420583F4F28171A
:1013200039075CF4AE81BF81ED91FC91119701907A
:10133000F081E02D6AE0CD01099581E090E02796EB
:101340000FB6F894DEBF0FBECDBFDF91CF911F91D6
:101350000F91FF90EF90DF90CF90BF90AF909F9054
:101360008F907F906F905F904F903F902F90089557
:101370001F920F920FB60F9211242F933F934F930A
:101380005F936F937F938F939F93AF93BF93EF93ED
:10139000FF9384EB90E090939500809394002091CC
:1013A0009501309196018091AC019091AD01820F31
:1013B000931F90939601809395012091970130910E
:1013C00098018091AE019091AF01820F931F90938D
:1013D0009801809397012091990130919A01809111
:1013E000B0019091B101820F931F90939A01809365
:1013F000990120919B0130919C018091B2019091C3
:10140000B301820F931F90939C0180939B012091C5
:101410009401822F8F738F3309F5809192019091FF
:101420009301AC0155954795BC0168E07602612DAA
:10143000770B1124F3E095958795FA95E1F78627C8
:10144000972780FF03C080E090E002C080E090E832
:10145000840F951F90939301809392016091900166
:10146000709191014DED59E8649FC001659F900D09
:10147000749F900D112483569B4C909391018093FF
:1014800090012F5F20939401E091AA01F091AB01AC
:1014900009954091B9013091B801642F70E04091F5
:1014A00092015091930146235723840F951F209159
:1014B0009101422F522F550F550B232F30E024233B
:1014C0003523820F931F90938F0180938E0180911B
:1014D0008E0190918F019093990080939800FF91D5
:1014E000EF91BF91AF919F918F917F916F915F919C
:1014F0004F913F912F910F900FBE0F901F90189515
:1015000020914903211103C08FEF9FEF08955FB72A
:10151000F89422E02093E9002091F20030E01216C6
:10152000130614F421E030E0422FFC0184E6415020
:1015300038F02898809348039091F1009193F7CF69
:101540002115310521F08091F200882319F05FBF49
:10155000C90108958BE68093E800F9CF2FB7F8947E
:1015600083E08093E9009091E800892F807295FFD5
:1015700004C09091F20080E4891B2FBF08958091F0
:10158000740781110DC082E08093700784E080931E
:101590007107109273071092720781E080937407AD
:1015A00080E797E00895CF93DF931F92CDB7DEB722
:1015B0006983DC01ED91FC910280F381E02D41E033
:1015C00050E0BE016F5F7F4F09950F90DF91CF9183
:1015D000089583E08093E9008091F200882319F058
:1015E0008AE38093E80008950E94AE0A90E008958F
:1015F000CF93DF931F92CDB7DEB7FC01848595852D
:1016000097FD05C02FEF3FEF358724870BC0CE0134
:1016100001960E94800A019719F4898190E002C026
:101620008FEF9FEF0F90DF91CF9108950F931F934E
:10163000CF93DF931F92CDB7DEB78C01FC01848579
:10164000958597FF0EC0CE0101960E94800A0197F2
:1016500019F4898190E002C08FEF9FEFF801958720
:101660008487F801848595850F90DF91CF911F9134
:101670000F910895FC018485958597FD0BC09FB758
:10168000F89482E08093E9008091F2009FBF90E09F
:10169000019608959FB7F89482E08093E9008091C5
:1016A000F2009FBF90E008958F929F92AF92BF92F9
:1016B000CF92DF92EF92FF920F931F93CF93DF931E
:1016C0006C017B018A0180910B01882309F45CC0C5
:1016D00080914903882309F457C08091470380FF14
:1016E00005C08091E00082608093E000E801B12CA9
:1016F0008AEFA82E93E0892E2AE3922E209711F4E8
:10170000BB20D9F10E94AE0A81110AC0AA94AA2076
:10171000D9F161E070E080E090E00E940711EECF27
:10172000282F30E0C217D3070CF48C2F9FB7F89402
:101730008092E9002091E80025FF1DC0282F30E0AD
:10174000C21BD30BF701815020F041914093F1006F
:10175000FACFE20EF31EBB2019F09092E8000AC007
:101760008091E80085FD07C09092E800BB24B39407
:10177000209709F0B12C9FBFC1CF5D9884E680937C
:101780006F071016110644F081E090E0F601938394
:10179000828380E090E001C0C801DF91CF911F916A
:1017A0000F91FF90EF90DF90CF90BF90AF909F9000
:1017B0008F900895DF92EF92FF920F931F93CF9334
:1017C000DF93D82EF92EE42E062F10E0C8010196E3
:1017D000880F0E94AC0F83E00E94AC0FCD2DDF2D4F
:1017E0000C0F1D1FC017D10789F0E7FE03C0FE01D3
:1017F000849101C088810E94AC0FF82E80E00E9485
:10180000AC0F8F2121968111EDCF01C081E0DF91D6
:10181000CF911F910F91FF90EF90DF900895DF928D
:10182000EF92FF920F931F93CF93DF93D82E8A01ED
:101830007B01E40EF51EEB01CE15DF0571F0D7FE3E
:1018400003C0FE01849101C088810E94AC0F2196E3
:101850008111F2CF8FEF9FEF01C0C801DF91CF91CF
:101860001F910F91FF90EF90DF9008950F931F93BA
:10187000CF93DF931F92CDB7DEB782E0898342E436
:1018800050E066E176E080E80E940F0C0E94BF0AFB
:10189000DC0112960D911C9113970115110589F029
:1018A000D801ED91FC910280F381E02DBE016F5FC4
:1018B0007F4FC801099597FD04C0F8010085118587
:1018C000ECCF89810F90DF91CF911F910F910895F7
:1018D00090E0FC01EA53F94F2491FC01E955F94FDE
:1018E0008491882399F090E0880F991FFC01E756B6
:1018F000F94FA591B491FC01E557F94F8591949169
:101900008FB7F894EC91E22BEC938FBF08950F936F
:101910001F93CF93DF938C01C0E0D0E0F801EC0F70
:10192000FD1F6491662341F080E597E00E94B608B0
:10193000892B11F02196F2CFCE01DF91CF911F912B
:101940000F910895AF92BF92CF92DF92EF92FF92E4
:101950000F931F93CF93DF937B01EC015C01A40EE7
:10196000B11C6B01C20ED11CCA15DB05E4F4870162
:10197000F7FE02C000E010E0C60121E4C216D10467
:1019800014F080E490E0081719075CF4C038D10522
:1019900028F441E0B801CE010E949E080F5F1F4F5E
:1019A000EBCF2196E1CFDF91CF911F910F91FF9067
:1019B000EF90DF90CF90BF90AF90089520915A079D
:1019C000282329F490915907982381E009F480E0B5
:1019D000089580914A038EBDEBE4F3E08AE497E03A
:1019E00021910DB407FEFDCF2EBD8E179F07C1F7C5
:1019F0000DB407FEFDCF08951F920F920FB60F9200
:101A000011248F939F938091E1009091E100937F47
:101A10009093E10083FF0FC01092E90091E0909352
:101A2000EB001092EC0092E39093ED0010924903CA
:101A300098E09093F00082FF20C093E09093E9003B
:101A40009091F200992319F09AE39093E800909115
:101A50006F07992339F090916F07915090936F071A
:101A6000992389F190914803992339F09091480383
:101A7000915090934803992341F184FF10C08091C5
:101A8000E2008E7E81608093E2008091E1008F7E93
:101A90008093E100809147038E7E806111C080FFBA
:101AA00016C08091E2008E7E80618093E20080917A
:101AB000E1008E7E8093E100809147038E7E8160FD
:101AC0008093470304C05D9ACDCF289AD6CF9F91CB
:101AD0008F910F900FBE0F901F9018951F920F922D
:101AE0000FB60F921124CF92DF92EF92FF920F93D5
:101AF0001F932F933F934F935F936F937F938F9396
:101B00009F93AF93BF93EF93FF93CF93DF93CDB7A3
:101B1000DEB76C97DEBFCDBF1092E9008091E80080
:101B200083FFFBC168E0CE0145960E94DA0F82EF89
:101B30008093E8008D8987FF05C09091E80090FFB1
:101B4000FCCF03C09EEF9093E800982F907609F0A9
:101B5000C6C09E894F89588D2F89F88C91110CC071
:101B6000803829F4809146038093F10002C01092DE
:101B7000F1001092F10045C1913051F4811141C141
:101B80004130510509F03DC1809146038D7F0BC066
:101B9000933061F4811135C14130510509F031C1F3
:101BA000809146038260809346032BC1953049F4AF
:101BB0008091E80080FFFCCF822F80688093E30053
:101BC00020C1963009F05EC00B8D1C8D22E0109272
:101BD000E9001092450310924403F21232C01092B1
:101BE0004303109242030E94360C99E0BE016F5FDE
:101BF0007F4FDB01E92F1D92EA95E9F79983FA827D
:101C000091E09E8390EA98879AEF99872091440308
:101C100030914503275F3F4F3C832B838D83109288
:101C2000E90010924503109244031093430300937C
:101C3000420349E050E080E00E940F0C0E94360C05
:101C4000E0C010934303009342030E94BF0ADC01EB
:101C500012960D911C9113970115110509F4BBC043
:101C6000D801ED91FC910480F581E02DBE016B5E01
:101C70007F4FC8010995009709F0C7C0F80100859A
:101C80001185EACF973009F445C1983021F481E0FD
:101C90008093F100B6C0993009F0B3C0837009F0A9
:101CA00039C1E7E5F1E081E031E096E320812111DF
:101CB00009C08EE78093EA001092EA008F89809332
:101CC00049039FC08093E9003093EB00219120935A
:101CD000EC009093ED008F5F873041F7EACF8B8D5A
:101CE0009C8D1092E900109245031092440390934A
:101CF000430380934203898D811153C08E899D894E
:101D0000913A49F4813209F005C147E050E064E0BE
:101D100071E080E0BBC0913209F0FCC0833269F40D
:101D20008F89988DA0E0B0E080930001909301012D
:101D3000A0930201B093030164C0803269F48091E2
:101D4000E80082FFFCCF67E084E091E00E94DA0FB8
:101D50008BEF8093E80055C0823209F052C08F8922
:101D600080930B01EEEFFFE7859194918B3F9C4DA3
:101D700019F0E0E0F8E002C0EEEFFAE08091040133
:101D800090910501A0910601B0910701803B94401C
:101D9000A105B10509F09EC080910B0180FF79C0BB
:101DA00099C00E94BF0AFC0102811381011511052F
:101DB00009F4B0C0D801ED91FC910190F081E02DC3
:101DC000BE016B5E7F4FC801099581111AC0F801F1
:101DD00000851185EBCFF1E0FF1609F44EC0F3E06A
:101DE000FF1298C08F89882309F44AC0823089F491
:101DF00040E860E18AE796E00E94DA0B882309F464
:101E000089C08EEF8093E80088C018161906CCF3BD
:101E100081C0813029F440E86BE08EE696E0ECCF9B
:101E2000833009F077C00E94BF0ADC011296ED9062
:101E3000FC9013978E010F5F1F4F6801E114F104AE
:101E400079F0D701ED91FC910680F781E02DB80182
:101E5000C7010995080F111DF701E084F184EECF49
:101E6000D8011C92F60101900020E9F73197BF01DB
:101E70006C197D0940E0C601BFCF6CE576E002C079
:101E800068E576E0FB01449150E080E80E940F0C89
:101E9000B8CFEE3F2AE0F20751F080819181873779
:101EA000A7E79A0721F09093FF0A8093FE0A87E73D
:101EB00097E7918380838091600080936E079BE019
:101EC00088E10FB6F894A895809360000FBE9093B8
:101ED000600097CF808191818737974709F091CF34
:101EE000A8958091600088618093600080916E0762
:101EF00080936000EE3FBAE0FB0739F08091FE0A64
:101F00009091FF0A918380837CCF1092FF0A1092F8
:101F1000FE0A77CF81E28093EB006C960FB6F894BF
:101F2000DEBF0FBECDBFDF91CF91FF91EF91BF918B
:101F3000AF919F918F917F916F915F914F913F9161
:101F40002F911F910F91FF90EF90DF90CF900F9006
:101F50000FBE0F901F901895409144035091450378
:101F6000209142033091430342175307B4F49091F8
:101F7000E8009570E1F39091E80092FD19C080931C
:101F8000F100809144039091450301968F73992746
:101F9000892B19F48EEF8093E8008091440390918F
:101FA00045030196909345038093440381E008958F
:101FB00080E00895615030F02091F100FC01208311
:101FC0000196F8CF289884E6809348030895362F29
:101FD00090E0FC01EB51F94F4491FC01EA53F94FB9
:101FE0002491FC01E955F94F8491882309F452C0EA
:101FF0004423E1F150E0FA013197EF30F105B0F5FB
:10200000EA5AFF4F0C946316909180009F7707C0A7
:10201000909180009F7D03C090918000977F909366
:10202000800024C094B59F7702C094B59F7D94BD75
:102030001DC0909190009F7707C0909190009F7D68
:1020400003C090919000977F909390000FC0909163
:10205000C0009F7703C09091C0009F7D9093C00007
:1020600005C09091C200977F9093C200E82FF0E0E6
:10207000EE0FFF1FE557F94FA591B4919FB7F89464
:10208000311104C08C912095282302C0EC912E2B95
:102090002C939FBF08951F93CF93DF93182FEB01CD
:1020A0000E94680C209711F460E004C0CF3FD10576
:1020B00039F461E0812FDF91CF911F910C94E70FEC
:1020C000E12FF0E0EB51F94FE4918E2F90E0FC010D
:1020D0003197EF30F10508F06CC0EB59FF4F0C94CD
:1020E000631684B5806884BDC7BD68C084B580624E
:1020F00084BDC8BD63C080918000806880938000EB
:10210000D0938900C093880059C08091800080627C
:1021100080938000D0938B00C0938A004FC0809141
:102120008000886080938000D0938D00C0938C00E5
:1021300045C080919000806880939000D093990072
:10214000C09398003BC08091900080628093900083
:10215000D0939B00C0939A0031C08091900088601A
:1021600080939000D0939D00C0939C0027C08091E5
:10217000C00080688093C0008091C0008F7B8093F6
:10218000C000C093CF001AC08091C00080628093CD
:10219000C000C093D00012C08091C20088608093BC
:1021A000C2008091C2008B7F8093C200C093D20096
:1021B00005C0C038D1050CF07CCF76CFDF91CF9130
:1021C0001F9108953FB7F8948091DF079091E00741
:1021D000A091E107B091E20726B5A89B05C02F3F6B
:1021E00019F00196A11DB11D3FBFBA2FA92F982F3D
:1021F0008827820F911DA11DB11DBC01CD0142E0B8
:10220000660F771F881F991F4A95D1F708958F92FF
:102210009F92AF92BF92CF92DF92EF92FF926B01AB
:102220007C010E94E2104B015C01C114D104E10465
:10223000F104F1F00E94E210DC01CB018819990948
:10224000AA09BB09883E9340A105B10570F321E0BE
:10225000C21AD108E108F10888EE880E83E0981EC2
:10226000A11CB11CC114D104E104F10419F7DDCFA4
:10227000FF90EF90DF90CF90BF90AF909F908F90A6
:1022800008951F920F920FB60F9211242F933F9330
:102290008F939F93AF93BF938091DA079091DB0761
:1022A000A091DC07B091DD073091DE0723E0230F1A
:1022B0002D3720F40196A11DB11D05C026E8230F7E
:1022C0000296A11DB11D2093DE078093DA0790933B
:1022D000DB07A093DC07B093DD078091DF079091C7
:1022E000E007A091E107B091E2070196A11DB11DA1
:1022F0008093DF079093E007A093E107B093E20794
:10230000BF91AF919F918F913F912F910F900FBEF1
:102310000F901F9018950F931F93CF93DF938C010D
:1023200081E090E00E94D01580FF31C08AE090E00B
:102330000E94D0159FEF980F9E3F48F522E330E0B2
:10234000D80157963C932E93569728E330E0599640
:102350003C932E935897CBE0D0E0D801ED91FC91BF
:102360000190F081E02D682FC8010995CE010E94EF
:10237000D0152196C131D10581F70E94E90C88EE74
:1023800093E0DF91CF911F910F910C943704DF916F
:10239000CF911F910F91089504970C948B1178940D
:1023A00084B5826084BD84B5816084BD85B582605A
:1023B00085BD85B5816085BD80916E00816080930B
:1023C0006E00109281008091810082608093810074
:1023D0008091810081608093810080918000816084
:1023E0008093800080919100826080939100809121
:1023F0009100816080939100809190008160809332
:1024000090008091C10084608093C1008091C100E0
:1024100082608093C1008091C10081608093C1007F
:102420008091C30081608093C3008091C00082606E
:102430008093C0008091C20081608093C20080912F
:102440007A00846080937A0080917A008260809321
:102450007A0080917A00816080937A0080917A007E
:10246000806880937A00109249031092460310927C
:1024700047038091D70081608093D70080EA8093E2
:10248000D80089B5806189BD89B5826089BD09B4EC
:1024900000FEFDCF61E070E080E090E00E94071157
:1024A0008091D8008F7C80618093D8008091E0007B
:1024B000807F8093E0008091E1008E7E8093E10038
:1024C0008DE08093E200559A209A83EB93E09093FD
:1024D000AB018093AA0185E00E94680C8DE00E9408
:1024E000680C60E08DE00E94E70F81E88093900027
:1024F00081E0809391008093710020E530E030937B
:1025000099002093980091EC90937C0095B1906F86
:1025100095B9249894B1966E94B95E9A5F989AB1E1
:10252000906D9AB9769A6E9891B3906F91BB899895
:1025300090B39D7090BB90E59CBD8DBD85E090E013
:102540000E9437045F9A85E090E00E9437045E980D
:102550005C98E9E0F6E086E196E024912EBD00006B
:102560000DB407FEFDCF31968E179F07B1F75C9A29
:1025700081E88093640081E08093650080E180932E
:102580005B07109202031092010320914103A3E024
:10259000B3E0220F330B80E090E0F901E80FF91F60
:1025A000E05FFE4F408151814D935D9302968E33E3
:1025B000910599F74CEB51E028E03FEF80E090E087
:1025C000FC01EE5FFE4FE40FF51F3083019688306B
:1025D0009105B1F72150485F5F4F2111EFCF8091F6
:1025E00064008E7F8093640080917A008064809381
:1025F0007A0080917A0086FDFCCFC0917800D0915E
:1026000079000E94E2108E0120E030E0980111274D
:102610000027600F711F821F931F611571058105CF
:10262000910511F00E94C71580916400816080932C
:1026300064000E94170510924E0785E08093FE0209
:102640008CE497E09093BB018093BA0100E010E026
:10265000882483947C01F0E29F2EA0E3BA2EB0E49C
:10266000AB2E2FB7F8948091DA079091DB07A091F9
:10267000DC07B091DD072FBF20916407222341F0D2
:1026800020915C07821B809365071092640794C1B8
:1026900040916007509161076091620770916307F4
:1026A00084179507A607B70778F4481B423008F44B
:1026B00083C183B7817F83BF83B7816083BF8895E0
:1026C00083B78E7F83BF78C18092640780935C0755
:1026D00090935D07A0935E07B0935F0720915B071F
:1026E000820F911DA11DB11D80936007909361071A
:1026F000A0936207B09363078091570790915807A2
:10270000019690935807809357072091590720937B
:102710005A076FB14CB133B150E0409550954074B9
:10272000552773E0559547957A95E1F7232F30E0CB
:102730002095309520713327359527953595279528
:10274000242B362F3095307F232B2093590720914F
:10275000B901222339F02091B90130E03595279550
:102760002093B9012091B801222339F02091B801BA
:1027700030E0359527952093B8014091B401209120
:10278000FF0230910003442339F12F3028F5E32F65
:10279000F0E0E254FD4FE08140E1E49FF0011124BC
:1027A000E454FE4FE20FF11DA181B0E0AA0FBB1F60
:1027B000AF5FBC4FE281F0E0EE0FFF1FEF5FFC4F19
:1027C0006D917C91408151816417750729F040918A
:1027D000B40148504093B401C32FD0E0C454DE4F3D
:1027E000FE01E65FFE4F4081E22FF0E0DF0150E1A5
:1027F000459FA00DB11D1124BD0164547E4F3B01C6
:10280000DB0111966C9170E0660F771F6F5F7C4F54
:10281000DB01CD90DC905091B5015523A9F02F300C
:1028200098F4D30112965C91A52FB0E0AA0FBB1FBC
:10283000AF5FBC4F6D917C91C616D70629F05091C1
:10284000B50154505093B5016091FE0270E00E94B2
:102850003B16892B09F07CC0DE01AE5FBE4F8C9128
:102860008F3FF9F0DF0150E1859FA00DB11D1124CC
:10287000A454BE4F1196AC91B0E0AA0FBB1FAF5F3E
:10288000BC4F8D919C916091AC017091AD01861708
:10289000970749F09093AD018093AC01A092B401E9
:1028A00002C01092B4014F3F71F08091AE0190913F
:1028B000AF01C816D90649F0D092AF01C092AE015F
:1028C000B092B50102C01092B501CE5EDE4F888194
:1028D0008F3FB1F060E1869FE00DF11D1124E454BB
:1028E000FE4FE181F0E0EE0FFF1FEF5FFC4F8081B4
:1028F00091819093B1018093B0019092B60102C092
:102900001092B6012F5F203119F02093FF020AC008
:102910001092FF023F5F323019F03093000309C07C
:10292000109200038091FF0280FF03C06FEE70E001
:1029300002C06FEF70E08AE00E944B106FEF70E012
:102940008BE00E944B106FEF70E089E00E944B100B
:102950006091FE0270E080915707909158070E94A5
:102960003B16892B51F48091FF02811106C08091A2
:102970000003811102C00E9417058091BA01909155
:10298000BB01DC01ED91FC910280F381E02D099502
:10299000EC018091BA019091BB01DC01ED91FC91B9
:1029A0000480F581E02D09950E94E90C219721F41E
:1029B000F092BB01E092BA010115110509F451CE64
:1029C0000E9400004ECEECE7F7E01382128288EE00
:1029D00093E0A0E0B0E084839583A683B78381E68B
:1029E00091E0918380838FEF9FEF95878487E0E567
:1029F000F7E0138212821186128620E123879087E6
:102A00008783108A118A128A138A148A83E791E0D5
:102A10009183808381E891E095838483178A168A65
:102A2000118E108E81E0828F138E848F158E80E33D
:102A300094E090934B0780934A0780E090E890934E
:102A4000D9078093D80746983E9A47983F9A87E8D7
:102A500091E090934D0780934C0708958F929F9239
:102A6000AF92BF92CF92DF92EF92FF92CF93DF931C
:102A7000EC01688179818A819B81611571058105ED
:102A8000910521F464E279ED8BE597E02DE133EFD8
:102A900041E050E00E94D81549015A019B01AC0168
:102AA000A7EAB1E40E94F7156B017C01ACEEB4EF2C
:102AB000A50194010E940516DC01CB018C0D9D1D22
:102AC000AE1DBF1DB7FF03C00197A109B0488883A1
:102AD0009983AA83BB83BC01CD019F77DF91CF91FE
:102AE000FF90EF90DF90CF90BF90AF909F908F902E
:102AF00008958F929F92AF92BF92CF92DF92EF9202
:102B0000FF9260910C0170910D0180910E019091E6
:102B10000F01611571058105910521F464E279EDDC
:102B20008BE597E02DE133EF41E050E00E94D815AE
:102B300049015A019B01AC01A7EAB1E40E94F715D3
:102B40006B017C01ACEEB4EFA50194010E94051667
:102B5000DC01CB018C0D9D1DAE1DBF1DB7FF03C059
:102B60000197A109B04880930C0190930D01A093A7
:102B70000E01B0930F01BC01CD019F77FF90EF9044
:102B8000DF90CF90BF90AF909F908F90089560930B
:102B90000C0170930D0180930E0190930F01089525
:102BA000F999FECF92BD81BDF89A992780B5089515
:102BB000052E97FB1EF400940E94EF1557FD07D0D9
:102BC0000E940A1607FC03D04EF40C94EF155095A2
:102BD0004095309521953F4F4F4F5F4F0895909509
:102BE0008095709561957F4F8F4F9F4F08950E94FC
:102BF0002C16A59F900DB49F900DA49F800D911D44
:102C000011240895B7FF0C94F7150E94F715821B45
:102C1000930B0895A1E21A2EAA1BBB1BFD010DC048
:102C2000AA1FBB1FEE1FFF1FA217B307E407F5077C
:102C300020F0A21BB30BE40BF50B661F771F881F58
:102C4000991F1A9469F760957095809590959B01EE
:102C5000AC01BD01CF010895A29FB001B39FC00197
:102C6000A39F700D811D1124911DB29F700D811DB8
:102C70001124911D0895AA1BBB1B51E107C0AA1F77
:102C8000BB1FA617B70710F0A61BB70B881F991F0D
:102C90005A95A9F780959095BC01CD01089597FBB1
:102CA000072E16F4009407D077FD09D00E943B163A
:102CB00007FC05D03EF4909581959F4F089570953F
:102CC00061957F4F0895EE0FFF1F0590F491E02D61
:102CD000099481E090E0F8940C946E16F894FFCF7C
:102CE000FFFFFFFF00E10000000000000100000006
:102CF000060126014A015D018801B801EE010B02BF
:102D00004B029302BA0210037003DC03170497040A
:102D1000270575052006E006B8072D082D094D0A80
:102D2000EA0A400CC00D6F0F5A105B129A14D415AA
:102D30008018801BDE1E00C18081000000000000A2
:102D400000D30A540BF40AE90A3A0BF80A160B00EE
:102D5000000000B608EC03340433048B11FCFF00C0
:0E2D600000CC1100000000AD03360745060050
:00000001FF
